:020000040800F2
:10000000FCFF04204DC9000895CE000895CE0008DD
:1000100095CE000895CE000895CE000895CE000834
:1000200095CE000895CE000895CE000895CE000824
:1000300095CE000895CE000895CE000895CE000814
:1000400095CE000895CE000895CE000895CE000804
:1000500095CE000895CE000895CE000895CE0008F4
:1000600095CE000895CE000895CE000895CE0008E4
:1000700095CE000895CE000895CE000895CE0008D4
:1000800095CE000895CE000895CE000895CE0008C4
:1000900095CE000895CE000895CE000895CE0008B4
:1000A00095CE000895CE000895CE000895CE0008A4
:1000B00095CE000895CE000895CE000895CE000894
:1000C00095CE000895CE000895CE000895CE000884
:1000D00095CE000895CE000895CE000895CE000874
:1000E00095CE000895CE000895CE000895CE000864
:1000F00095CE0008E5CD000895CE000895CE000805
:1001000095CE000895CE000895CE000895CE000843
:1001100095CE000895CE000895CE000895CE000833
:1001200095CE000895CE000895CE000895CE000823
:1001300095CE000895CE000895CE000895CE000813
:1001400095CE000895CE000895CE000895CE000803
:1001500095CE000895CE000895CE000895CE0008F3
:1001600095CE000895CE000895CE000895CE0008E3
:1001700095CE000895CE000895CE000895CE0008D3
:1001800095CE000895CE000895CE000895CE0008C3
:1001900095CE000895CE000895CE000895CE0008B3
:1001A00095CE000895CE000895CE000895CE0008A3
:1001B00095CE000895CE000895CE000895CE000893
:1001C00095CE000895CE000881B0C40AA4B2E40020
:1001D0000C704409A4B2A4001470C4001C7001B0D7
:1001E0007047FFFF81B0F0EE400A8A00821812EDDE
:1001F000000AB0EE401AB0EE410AB0EE601A79B1D2
:1002000061EE000A4A1E12B211B29200821812ED7B
:10021000000A30EE800A0DED000A1DED000AEEE73F
:1002200001B0704781B0244900EA0101084600226C
:1002300018E0012038E0022036E0042034E00820F5
:1002400032E0102030E020202EE040202CE0802002
:100250002AE040F2001027E040F2002024E040F2C3
:10026000004021E015498842E3D015498842E2D098
:1002700014498842E1D014498842E0D013498842A9
:10028000DFD013498842DED012498842DDD01249BE
:100290008842DCD011498842DBD011498842DBD04A
:1002A00010498842DBD010460F49096841EA000234
:1002B0000D490A6001B0704700FCFFFF00000240DA
:1002C0000004024000080240000C024000100240FE
:1002D0000014024000180240001C024000200240AE
:1002E00000240240002802403038024085B0CDF89A
:1002F00000E0154D0346002922D904AC0193ADF866
:100300000810039522461846104C2468A047039D08
:10031000BDF80810019B04460020BDF81020904253
:1003200006D222782A706D1C641C401C80B2F4E74F
:10033000BDF81020891A89B2BDF810209B18DAE7A1
:10034000DDF800E005B07047B8420220C442022048
:1003500082B0CDF800E0ADF804200AB201B2002965
:1003600004DB184B1B88994200D200E026E0002AEB
:1003700004DB154B1B889A4200D200E01EE0134CB0
:1003800023686FF30C33236004F016F838B193B28E
:100390008AB299B290B20E4C2468A04704E088B2A9
:1003A00091B20C4C2468A047BDF804000A4C2468A4
:1003B000A047064C236843F480532360DDF800E037
:1003C00002B07047D4420220D642022014140240E8
:1003D000E4420220E8420220EC42022081B0C3083D
:1003E000DBB2DC02A4B28B08DBB25B019BB21C4324
:1003F000A4B2D308DBB244EA030398B201B0704759
:1004000082B08DED010A01A90968C90D01F0FF0153
:1004100009B27F3909B208B200290EDA9DED010A4E
:10042000B5EEC00AF1EE10FA02DABFEE000A24E0DF
:100430004FF0000100EE101A1FE081B2182902D916
:100440009DED010A19E09DED010ABDEE400A10EE96
:10045000101A00EE901AF8EEE00AB0EE601A9DED68
:10046000010AF4EEC00AF1EE10FA04DDB7EE000A5C
:1004700031EE400A01E0B0EE410A02B07047FFFFE2
:1004800081B0CDF800E00F490988884200D215E01C
:100490000D490988884200D910E00A490988411AA3
:1004A00089B28A0092B20949096808318918084658
:1004B0000421FFF71BFF06480178C8B2DDF800E011
:1004C00001B07047B0420220B2420220C84202206E
:1004D000B842022088B0CDF800E0ADF81800ADF8C1
:1004E0001C1015B299B2A8B202F094FABDF91840E6
:1004F000AC4207D1BDF9182019B2BDF91C0000F0BB
:10050000DFFF2AE1BDF91C409C4207D1BDF91C2048
:1005100029B2BDF9180001F05BF81EE10024ADF826
:100520001240BDF918402C1B24B2ADF80840002C35
:100530000ADABDF908406442ADF80840BDF812403F
:10054000641EADF8124004E0BDF81240641CADF822
:1005500012400024ADF81440BDF91C401C1B24B20D
:10056000ADF80A40002C0ADABDF90A406442ADF841
:100570000A40BDF81440641EADF8144004E0BDF814
:100580001440641CADF814400024ADF81640BDF9C9
:100590000A50BDF90840AC4246DABDF81640641C6A
:1005A000ADF81640BDF90800BDF90A40ADF80840A5
:1005B000ADF80A00BDF91800BDF91C40ADF81840AF
:1005C000ADF81C00BDF81200BDF81440ADF81240A3
:1005D000ADF8140040F2010A5FFA8AF0614C247809
:1005E000A04220D8C1B201F0010424B21CB94A4291
:1005F00012B211B2FFE74E1036B25B4C2588BDF93E
:100600001C40A4198DF80400AAB2BDF9181020B23C
:10061000FFF79EFE9DF8040000F1010A5FFA8AFAD6
:100620005FFA8AF0DAE727E040F2010A5FFA8AF01F
:100630004C4C2478A0421FD8C1B201F0010424B26E
:100640001CB94C4222B211B2FFE74E1036B2464CF2
:100650002588BDF91C40A4198DF80400AAB221B266
:10066000BDF91800FFF774FE9DF80400441C5FFA02
:1006700084FA5FFA8AF0DBE7BDF908406400ADF860
:100680001040BDF90A4065002DB2ADF80E50BDF91D
:1006900008402C1BADF80C40BDF90840641E24B284
:1006A000ADF80840002C58DBBDF90C40002C0DDBE8
:1006B000BDF81450BDF91C406419ADF81C40BDF9DB
:1006C0001050BDF90C40641BADF80C40BDF8125041
:1006D000BDF918406419ADF81840BDF90E50BDF9C8
:1006E0000C406419ADF80C4001201E4C2478A04247
:1006F00032D8C5B205F0010424B214B9694209B276
:1007000000E029B2491009B2BDF816407CB1164C80
:100710002588BDF91C4064188DF80400AAB2BDF903
:10072000181020B2FFF714FE9DF804000EE00E4CE6
:100730002588BDF91C4064188DF80400AAB221B2C6
:10074000BDF91800FFF704FE9DF80400441C5FFA91
:1007500084F85FFA88F0C8E79EE7DDF800E008B0AB
:10076000704700BFD8420220DA42022089B0CDF89B
:1007700000E0ADF81800ADF81C108DF82030E24E06
:1007800034788DF81440E14D2C88ADF816400124E2
:100790003470DF4C24882C80BDF91840A41A24B290
:1007A000641CADF80C40BDF91840A41824B2641EB6
:1007B000ADF80E40BDF91C40A41A24B2641CADF87B
:1007C0001040BDF91C40A41824B2641EADF81240BC
:1007D000002424B2ADF80840BDF91850BDF91C4002
:1007E000641BADF80A40ADF80620540024B2C4F1F1
:1007F0000304ADF80440BDF90640651C2DB2BDF9F7
:100800000840AC4280F29B82C24C2478002C00F05D
:10081000AE81C14C2478002C40F0CD80BDF9105041
:10082000BDF91240671BBDF90650BDF91C406519A2
:100830002DB2BDF910402E1BB84C2588B84C248829
:10084000BBB2B2B2A9B2A0B200F0BCFD012102F06D
:10085000EDF8BDF90650BDF91C406719BDF9085007
:10086000BDF91840661BBDF90850BDF91840641960
:100870003AB231B220B200F0ABFEBDF91050BDF972
:100880001240671BBDF90650BDF91C40651B2DB217
:10089000BDF910402E1BA14C2588A14C2488BBB269
:1008A000B2B2A9B2A0B200F08DFD012102F0BEF8F3
:1008B000BDF90650BDF91C40671BBDF90850BDF9D4
:1008C0001840661BBDF90850BDF9184064193AB2CA
:1008D00031B220B200F07CFEBDF91050BDF91240DB
:1008E000671BBDF90850BDF91C4065192DB2BDF953
:1008F00010402E1B894C2588894C2488BBB2B2B28B
:10090000A9B2A0B200F05EFD012102F08FF8BDF99E
:100910000850BDF91C406719BDF90650BDF91C40CF
:10092000651B2DB2BDF90A402E1BBDF90650BDF95D
:100930001C4065192DB2BDF90A402C1B3AB231B2E8
:1009400020B200F045FEBDF91050BDF91240671B02
:10095000BDF90850BDF91C40651B2DB2BDF9104012
:100960002E1B6E4C25886E4C2488BBB2B2B2A9B245
:10097000A0B200F027FD012102F058F8BDF908509F
:10098000BDF91C40671BBDF90650BDF91C40651B35
:100990002DB2BDF90A402E1BBDF90650BDF91C4011
:1009A00065192DB2BDF90A402C1B3AB231B220B202
:1009B00000F00EFEDAE0BDF90C50BDF90E40671BE9
:1009C000BDF90850BDF9184065192DB2BDF90C40AC
:1009D0002E1B524C2588524C2488BBB2B2B2A9B20D
:1009E000A0B200F0EFFC012102F020F8BDF90850A0
:1009F000BDF918406719BDF90650BDF91C40661BCA
:100A0000BDF90650BDF91C4064193AB231B220B2AA
:100A100000F056FDBDF90C50BDF90E40671BBDF945
:100A20000850BDF91840651B2DB2BDF90C402E1BB6
:100A30003A4C25883A4C2488BBB2B2B2A9B2A0B2D3
:100A400000F0C0FC012101F0F1FFBDF90850BDF933
:100A50001840671BBDF90650BDF91C40661BBDF967
:100A60000650BDF91C4064193AB231B220B200F010
:100A700027FDBDF90C50BDF90E40671BBDF90650AE
:100A8000BDF91C4065192DB2BDF90A402D1B2DB2D0
:100A9000BDF90C402E1B214C2588214C2488BBB26B
:100AA000B2B2A9B2A0B200F08DFC012101F0BEFFEC
:100AB000BDF90650BDF91C4065192DB2BDF90A40BB
:100AC0002F1BBDF90850BDF91C40661BBDF908502D
:100AD000BDF91C4064193AB231B220B200F0F0FC0A
:100AE000BDF90C50BDF90E40671BBDF90650BDF9AC
:100AF0001C40651B2DB2BDF90A402D1B2DB2BDF95E
:100B00000C402E1B054C0DE0D8420220DA42022098
:100B1000DC420220D9420220DE420220E2420220D0
:100B2000E042022025888C4C2488BBB2B2B2A9B224
:100B3000A0B200F047FC012101F078FFBDF906509A
:100B4000BDF91C40651B2DB2BDF90A402F1BBDF934
:100B50000850BDF91C40661BBDF90850BDF91C408A
:100B600064193AB231B220B200F0AAFCBCE09DF8A0
:100B70002040002C58D1BDF90850BDF91840671924
:100B8000BDF90650BDF91C40661BBDF90650BDF904
:100B90001C4064193AB231B220B200F091FCBDF9A8
:100BA0000850BDF91840671BBDF90650BDF91C403F
:100BB000661BBDF90650BDF91C4064193AB231B24A
:100BC00020B200F07DFCBDF90650BDF91C4065194E
:100BD0002DB2BDF90A402F1BBDF90850BDF91C40CC
:100BE000661BBDF90850BDF91C4064193AB231B218
:100BF00020B200F065FCBDF90650BDF91C40651B34
:100C00002DB2BDF90A402F1BBDF90850BDF91C409B
:100C1000661BBDF90850BDF91C4064193AB231B2E7
:100C200020B200F04DFC5FE0BDF90650BDF91C405C
:100C30006719BDF90850BDF91840661BBDF9085089
:100C4000BDF9184064193AB231B220B200F0C0FCCC
:100C5000BDF90650BDF91C40671BBDF90850BDF930
:100C60001840661BBDF90850BDF9184064193AB226
:100C700031B220B200F0ACFCBDF90850BDF91C4007
:100C80006719BDF90650BDF91C40651B2DB2BDF9B1
:100C90000A402E1BBDF90650BDF91C4065192DB246
:100CA000BDF90A402C1B3AB231B220B200F090FCE0
:100CB000BDF90850BDF91C40671BBDF90650BDF9D0
:100CC0001C40651B2DB2BDF90A402E1BBDF9065014
:100CD000BDF91C4065192DB2BDF90A402C1B3AB272
:100CE00031B220B200F074FCBDF90440002C0BDAE4
:100CF000BDF90840A40024B2A51D2DB2BDF90440E1
:100D00006419ADF8044014E0BDF90650BDF908407F
:100D1000641B24B2A40024B204F20A052DB2BDF96A
:100D200004406419ADF80440BDF90640641EADF8F6
:100D30000640BDF90840641CADF808405BE59DF82D
:100D40001450064C2570BDF81650054C2580DDF872
:100D500000E009B0704700BFE0420220D842022004
:100D6000DA42022081B0CDF800E041F21440C4F232
:100D700002004FF001014FEAC121284A89B200F078
:100D800023FE274908686FF3CB20086041F2144026
:100D9000C4F202004FF001014FEA41311F4A89B20B
:100DA00000F012FE1F49086840F40050086041F24C
:100DB0001440C4F202004FF001014FEA0131174A1A
:100DC00089B200F001FE1849086840F480500860BC
:100DD00041F21440C4F202004FF001014FEA8131A8
:100DE0000E4A89B200F0F0FD41F21440C4F2020054
:100DF0004FF001014FEAC131084A89B200F0E4FD29
:100E00000A49086840F4804008600949086840F4CD
:100E100000400860DDF800E001B0704714000800F1
:100E2000141402401414024014140240141402401A
:100E30001414024086B0CDF800E087B240F20005FD
:100E400000267249097849B971490022084640F2E2
:100E5000000103F02BF901226C490A706D490988E1
:100E60008F4200D2CEE06C4909888F4200D9C9E098
:100E700068490988791A89B28A0092B2674C216858
:100E800008318B181878591C0978CAB2991C09784E
:100E900009025218D91C0978090452182146096818
:100EA0008C185F49097821B15D490978022900D081
:100EB00057E05C490B880022A046ACB25A49098829
:100EC0008A4244D259490D8800270024844238D2EE
:100ED0002FB998F8006008F101080127FFE706EA3A
:100EE0000701C9B231B3524909888DF80460CDF8C1
:100EF00008808DF80C708DF80D20ADF80E308DF84F
:100F00001000ADF812508DF814408AB219B228B210
:100F1000FFF71EFA9DF81440BDF812509DF810001E
:100F2000BDF80E309DF80D209DF80C70DDF808809E
:100F30009DF804606D1CADB27900CFB2641CE4B2C0
:100F4000C4E75B1C9BB2521CD2B2ACB2B6E73449C8
:100F5000097819B9621C35490A8001E031490B80D2
:100F600050E032490B8800222F4909888A4246D234
:100F70002C490D8800270021A046CCB2844238D2EB
:100F80002FB998F8006008F101080127FFE706EA89
:100F90000701C9B231B3264909888DF80460CDF83C
:100FA00008808DF80C708DF80D20ADF80E308DF89E
:100FB0001000ADF812508DF814408AB229B218B260
:100FC000FFF7C6F99DF81440BDF812509DF81000C7
:100FD000BDF80E309DF80D209DF80C70DDF80880EE
:100FE0009DF804606D1EADB27900CFB2641CE4B20E
:100FF000C4E75B1C9BB2521CD2B24446B4E76A1EE3
:1010000008490A80DDF800E006B070479A02002027
:10101000458A0108B0420220B2420220B4420220B6
:10102000C2420220CC420220CE420220D042022004
:10103000D24202208AB0CDF800E040F20001ADF8C3
:10104000241000218DF82610B5490988884200D265
:1010500062E1B4490988884200D95DE1B049098854
:10106000411A89B28A0092B2AF49096808318918D9
:1010700008460421FFF73AF9AC4803788DF8273089
:10108000411C0978CAB2811C097809025218C11C96
:10109000097809045218A449096889180491DA08E2
:1010A000D2B2A3490988514389B2069103F00701DE
:1010B000C9B221B19E490A880699891806910699F4
:1010C000089105AC2246069904989A4C2468A047DA
:1010D0000446059A049989180491059A0699891A73
:1010E0000691002107919449097821B19249097824
:1010F000022900D08CE091490988ADF80A1000213E
:101100008DF8091020468A490A889DF809109142F5
:1011100080F070808A490988ADF8241000218DF88C
:101120000C1000218DF8081004469DF827209DF82A
:101130000810914252D29DF80C1059BB0799491CD6
:101140000791089A059991421BD2059A07999142F5
:1011500015D90121079105AC224606990498754CD2
:101160002468A047044606990891059A04998918AD
:101170000491059A0699891A0691204600E02046B6
:1011800000E0204601788DF82610401C01218DF8E2
:101190000C1000E020469DF80C209DF82610114010
:1011A000C9B251B16749098801908AB2BDF80A10E5
:1011B000BDF82400FFF7CCF80198BDF82410491CB5
:1011C000ADF824109DF80C1049008DF80C109DF816
:1011D0000810491C8DF808100446A6E7BDF80A104F
:1011E000491CADF80A109DF80910491C8DF809102A
:1011F000204688E75049097829B9BDF824104A1CCF
:101200004F490A8003E0BDF80A204C490A8083E078
:101210004B490988ADF80A1000218DF809102046C5
:1012200043490A889DF80910914280F07080434933
:101230000988ADF8241000218DF80C1000218DF8DC
:10124000081004469DF827209DF80810914252D2BC
:101250009DF80C1059BB0799491C0791089A0599EC
:1012600091421BD2059A0799914215D90121079104
:1012700005AC2246069904982E4C2468A0470446E3
:1012800006990891059A049989180491059A069976
:10129000891A0691204600E0204600E020460178A9
:1012A0008DF82610401C01218DF80C1000E020461E
:1012B0009DF80C209DF826101140C9B251B121496A
:1012C000098801908AB2BDF82410BDF80A00FFF722
:1012D0003FF80198BDF82410491EADF824109DF880
:1012E0000C1049008DF80C109DF80810491C8DF861
:1012F00008100446A6E7BDF80A10491CADF80A100C
:101300009DF80910491C8DF80910204688E7BDF8A2
:1013100024104A1E09490A80DDF800E00AB070472F
:10132000B0420220B2420220C8420220B84202204B
:10133000CE420220C4420220C2420220CC420220FD
:10134000D0420220D242022081B0CDF800E085B226
:101350001449097849B914490022084640F20001AD
:1013600002F0A4FE01220F490A70104909888D423B
:1013700001D2002011E00E4909888D4201D90020D8
:101380000BE00A490988691A89B28A0092B20949B0
:101390000968083189180978C8B2DDF800E001B0A1
:1013A000704700BF9A020020458A0108B04202201F
:1013B000B2420220B442022001480078704700BFC8
:1013C0000603002083B0CDF800E087B21FFA81F851
:1013D0001FFA82F91FFA83FAB9F1000F01D1B8B2EE
:1013E0004CE0D14502D11FFA88F047E002AE0DF182
:1013F000060501AC33462A462146B8B2FEF7E4FEA4
:101400000DF109060DF107050DF1050433462A46D5
:1014100021461FFA88F0FEF7D7FE1FFA89F69DF8DD
:1014200005509DF804402C1B24B2744394FBFAF53C
:101430009DF8044004EB05081FFA89F69DF8075053
:101440009DF806402C1B24B2744394FBFAF59DF8DA
:10145000064067191FFA89F69DF809509DF8084063
:101460002C1B24B2744394FBFAF59DF808406419D0
:10147000E2B2F9B25FFA88F0FEF7B0FFDDF800E003
:1014800003B0704781B0ADF800100146BDF8000010
:1014900001F21C021368C3F3C01202B9F8E701F2AB
:1014A0002802106001B0704742F62A27C0F20007F8
:1014B0007F1EFDD100BF00BF00BF00BF00BF70474F
:1014C00086B0CDF800E0ADF8041001B2BDF904001B
:1014D000814203DD8BB201B218B2FFE7002902DAC4
:1014E000002109B204E02F4B1B88994200D355E03C
:1014F000002800DA52E02B4B1B88984205D3294B79
:101500001B885B1E18B203B200E003B2012015B2C3
:101510000AB219B2244B1B7898423FD8C4B204F0E7
:1015200001031BB213B9644224B2FFE763101BB27C
:101530001EB2EB181BB2002B06DBAC1924B21B4BFE
:101540001B889C4200D200E025E097B28F4222D84F
:10155000174B1C88AB198DF80400ADF80810ADF8D6
:101560000C20ADF81050ADF81260ADF81470A2B2B6
:1015700039B218B2FEF7ECFEBDF81470BDF9126076
:10158000BDF91050BDF90C20BDF908109DF80400FC
:101590007F1CBFB2DAE7401CC0B2BBE7DDF800E059
:1015A00006B07047D6420220D8420220D442022020
:1015B000DA4202200000000049F2FA67C0F249173F
:1015C0007F1EFDD100BF00BF00BF00BF00BF70473E
:1015D00086B0CDF800E0ADF80C00ADF81010ADF815
:1015E0001420BDF91040BDF90C30A34207DDBDF950
:1015F0000C00BDF91030ADF80C30ADF81000BDF99D
:101600000C30002B04DA00231BB2ADF80C3006E0DE
:101610004C4B1C88BDF90C30A34200D38EE0BDF9C1
:101620001030002B00DA89E0464B1C88BDF91030E1
:10163000A34204D3434B1B885B1EADF8103001233B
:101640008DF80830404B1C789DF80830A34200F21A
:1016500075809DF8080000F001031BB21BB94142E0
:1016600009B208B2FFE7441024B221B2BDF9143028
:101670001B191BB2002B08DBBDF914305C1824B217
:10168000324B1B889C4200D200E051E0304B1B786B
:10169000002B37D12F4C23686FF30C33236002F0FB
:1016A0008BFE60B1BDF914305C18A3B2BDF91020F7
:1016B000A1B2BDF90C00284C2468A04708E0BDF990
:1016C00014305C18A1B2BDF90C00244C2468A0476A
:1016D000BDF90C00BDF9103098420DD8204B1C8884
:1016E000ADF80400A0B21F4C2468A047BDF8040068
:1016F000411C89B288B2EDE7164C236843F480534D
:10170000236015E0BDF90C00BDF9103098420FD8E8
:10171000134B1B88ADF804009AB2BDF9141000B247
:10172000FEF716FEBDF80400431C99B288B2EBE741
:101730009DF808305B1C8DF8083083E7DDF800E089
:1017400006B07047D4420220D8420220D64202207E
:101750000203002014140240E4420220E842022066
:10176000DA420220EC4202208DB0CDF800E0ADF864
:1017700028001046ADF82C108DF83030851C2C78E0
:10178000ADF80C406E1C34782502ADB2BDF80C40AB
:101790006419ADF80C40751C2C78ADF80A406E1C2D
:1017A00034782502ADB2BDF80A406419ADF80A409C
:1017B000741C089406AE24783480089C641C089439
:1017C00024782502ADB2348864193480089C641CE6
:1017D0000894B51C24782C80089C641C0894B61CC2
:1017E00024782502ADB2348864193480089C641CC6
:1017F0000894BDF828505E4C2488641BADF80E4058
:10180000BDF82C505B4C2488641BADF810405A4D39
:101810002C686FF30C342C600024ADF81440BDF834
:101820000C50BDF81440AC4280F09880089C09949C
:10183000BDF81050BDF81440AC4200F289804D4C08
:101840002588BDF82C40AC4280F0828000248DF8C1
:1018500017409DF830509DF81740AC4280F07880DA
:10186000099C089402F0A8FD98B19DF83050BDF88D
:101870000A406543ADB2BDF828406419BDF82C306C
:10188000A2B2BDF82C10BDF828003C4C2468A0473B
:1018900006E0BDF82C10BDF82800394C2468A0479C
:1018A00000248DF81C400024ADF81240BDF80A5009
:1018B000BDF81240AC4240D29DF81C404CB9089C87
:1018C00024788DF80840089C641C089480248DF8C6
:1018D0001C409DF808509DF81C402C40E4B21CB1FF
:1018E00006ACA41C208801E006AC2088BDF80E5090
:1018F000BDF81240AC4215D800248DF816409DF872
:1019000030509DF81640AC420CD2ADF804001D4C8E
:101910002468A047BDF804009DF81640641C8DF8AB
:101920001640ECE79DF81C4064088DF81C40BDF89B
:101930001240641CADF81240B8E7BDF82C40641C9E
:10194000ADF82C409DF81740641C8DF8174080E7D7
:10195000BDF81440641CADF8144060E7064D2C68D7
:1019600044F480542C60DDF800E00DB0704700BFF7
:10197000D4420220D642022014140240E442022043
:10198000E8420220EC420220044A118801F47F411F
:1019900089B240EA01011180704700BF141802406B
:1019A00001480068704700BF744202200A7E0B3E67
:1019B00040F2D207C0F200077F1EFDD100BF00BF7A
:1019C00000BF00BF00BF704784B0CDF800E08DB20B
:1019D0001646864B00EA03031F461846FEF722FC14
:1019E000B5F1FF0F20D13C68814B04EA0303184690
:1019F000804B9E4214D145F2555340EA03033B60AD
:101A00003D1D2C686FF0FF0304EA03032B6007F20F
:101A100008052C684FF6FF7344EA03032B60E1E0EE
:101A2000422E01D13860DDE04FF6FF739D4213D1A5
:101A3000704B9E420BD14FF055333B603C1D002351
:101A4000236007F208044FF0FF332360CAE0422E00
:101A500002D100233B60C5E006F001030BB1032077
:101A60000AE006F008030BB1022005E006F00403CB
:101A70000BB1012000E0002006F401230BB103218B
:101A80000AE006F400630BB1022105E006F480636E
:101A90000BB1012100E0002106F020030BB101226F
:101AA00000E0002206F480730BB1022305E006F08B
:101AB00080030BB1012300E0002340F2000A0192F1
:101AC0001FFA85F9B046064618460A460199BAF14A
:101AD000100F80F087804FF0010303FA0AF409EA3F
:101AE0000403A34240F07B804FEA4A044FF0030313
:101AF000A340DC433B6823403B604FEA4A0306FABD
:101B000003F43B6823433B6008F00C033BB307F24C
:101B100008054FEA4A044FF00303A340DC432B6857
:101B200023402B6007F208054FEA4A0302FA03F448
:101B30002B6823432B603D1D1FFA8AF44FF00103ED
:101B4000A340DC432B6823402B603D1D1FFA8AF421
:101B50008BB203FA04F4A4B22B6823432B6007F280
:101B60000C051FFA8AF35C00A4B24FF00303A340F4
:101B7000DC432B6823402B6007F20C054FEA4A0335
:101B800000FA03F42B6823432B6008F0080333B3F7
:101B900008F470031B0D8DF80C30BAF1070F05D94E
:101BA00007F224030293AAF1080503E007F22003D9
:101BB00002935546AC004FF00F03A340DC43029B59
:101BC0001B6803EA0404029B1C609DF80C40AB00F8
:101BD0009C40029B1B6843EA0404029B1C600AF1C0
:101BE000010A74E7DDF800E004B0704700FCFFFF75
:101BF0000000FFFF1400080081B0CDF800E0F0EE17
:101C0000401A0023F5EEC01AF1EE10FA03DAF1EEF5
:101C1000610A012301E0F0EE610A284900EE101A82
:101C200020EE800AF0EE401AFEF7EAFB71EEC00AE1
:101C3000B1EE000A60EE200AB0EE601AB0EE000AC3
:101C4000F4EEC00AF1EE10FA0ADDB0EE000A31EE51
:101C5000402A002B40F2000300D10123DBB201E057
:101C6000B0EE412AB7EE000AB4EEC02AF1EE10FA47
:101C700004DDB0EE000A30EE422AFFE722EE020A4F
:101C8000F0EE401A042109B20D48FEF7ABFA22EE3D
:101C9000002A032109B20B48B0EE610AFEF7A2FA4E
:101CA00082EE000AF0EE400A13B1B1EE600A01E0E4
:101CB000B0EE600ADDF800E001B0704783F9223E23
:101CC00010B2010824B20108020292B241EA0203F2
:101CD0009BB2014A1360704714180240ADF2282DE0
:101CE000CDF800E0ADF81C021046ADF820128DF8DA
:101CF0002432851C2C78ADF808406E1C34782502FF
:101D0000ADB2BDF808406419ADF80840751C2C78D8
:101D1000ADF806406E1C34782502ADB2BDF8064021
:101D20006419ADF80640741C8594BDF81C52614CD2
:101D30002488641BADF80E40BDF820525E4C248808
:101D4000641BADF8104040F2000A1FFA8AF0B0F5AB
:101D5000807F17D205AE44003519859C24782C80ED
:101D6000859C651C8595440036192C782502ADB2FA
:101D7000348864193480859C641C8594441CA1B209
:101D800088B2E4E74D4D2C686FF30C342C600024CE
:101D9000ADF80C40BDF80850BDF80C40AC4280F0E6
:101DA0007E80859C8694BDF81050BDF80C40AC42F6
:101DB00000F26F80404C2588BDF82042AC4280F094
:101DC000688000248DF813409DF824529DF813403C
:101DD000AC425ED2869C859402F0EEFA98B19DF8F2
:101DE0002452BDF806406543ADB2BDF81C426419EB
:101DF000BDF82032A2B2BDF82012BDF81C02304C52
:101E00002468A04706E0BDF82012BDF81C022D4C46
:101E10002468A0470024ADF80A40BDF80650BDF87C
:101E20000A40AC422AD2859C247805AD64002C1966
:101E30002488ADF80440859C641C8594BDF80E5040
:101E4000BDF80A40AC4213D800248DF812409DF82A
:101E500024529DF81240AC420AD2BDF804001A4C3C
:101E60002468A0479DF81240641C8DF81240EEE7EC
:101E7000BDF80A40641CADF80A40CEE7BDF8204228
:101E8000641CADF820429DF81340641C8DF813408B
:101E90009AE7BDF80C40641CADF80C407AE7074D9A
:101EA0002C6844F480542C60DDF800E00DF2282DFD
:101EB000704700BFD4420220D642022014140240D0
:101EC000E4420220E8420220EC42022093B0CDF826
:101ED00000E0ADF840001046ADF844108DF84830F1
:101EE000851C2C78ADF80A406E1C34782502ADB202
:101EF000BDF80A406419ADF80A40751C2C78ADF89D
:101F000008406E1C34782502ADB2BDF80840641953
:101F1000ADF80840741C0E94BDF84050694C2488FC
:101F2000641BADF81040BDF84450674C2488641B16
:101F3000ADF8124040F2000A1FFA8AF0102817D2BA
:101F400006AE440035190E9C24782C800E9C651C2E
:101F50000E95440036192C782502ADB234886419E8
:101F600034800E9C641C0E94441CA1B288B2E5E738
:101F7000564D2C686FF30C342C600024ADF80E40E5
:101F8000BDF80A50BDF80E40AC4280F092800E9C25
:101F90000F94BDF81250BDF80E40AC4200F28380A1
:101FA000494C2588BDF84440AC4280F07C80002438
:101FB0008DF816409DF848509DF81640AC4280F0D0
:101FC00072800F9C0E9402F0F7F998B19DF848507A
:101FD000BDF808406543ADB2BDF840406419BDF896
:101FE0004430A2B2BDF84410BDF84000384C24681B
:101FF000A04706E0BDF84410BDF84000354C246809
:10200000A0470020BDF80840A04241D200F00104E2
:10201000A4B25CB19DF8144004F00F04E4B206AD24
:1020200064002C192488ADF80C400EE00E9C257835
:102030008DF814500E9C641C0E942C09E4B206AD6D
:1020400064002C192488ADF80C40BDF81040A04263
:102050001AD800248DF8154081B29DF848509DF89B
:102060001540AC420ED2ADF80410BDF80C001A4C6D
:102070002468A047BDF804109DF81540641C8DF835
:102080001540EAE788B2FFE7441CA1B288B2B9E77D
:10209000BDF84440641CADF844409DF81640641CF3
:1020A0008DF8164086E7BDF80E40641CADF80E4072
:1020B00066E7064D2C6844F480542C60DDF800E09F
:1020C00013B07047D4420220D642022014140240BA
:1020D000E4420220E8420220EC4202208AB0CDF81D
:1020E00000E0ADF81C00ADF820108DF82430951CF0
:1020F0002C78ADF806406E1C34782502ADB2BDF8E0
:1021000006406419ADF80640751C2C78ADF8044003
:102110006E1C34782502ADB2BDF804406419ADF8E8
:102120000440741C0594BDF81C50534C2488641B57
:10213000ADF81040BDF82050504C2488641BADF819
:1021400012404F4D2C686FF30C342C600024ADF816
:102150000A40BDF80650BDF80A40AC4280F08380CA
:10216000059C0694BDF81250BDF80A40AC4200F23E
:102170007480424C2588BDF82040AC4280F06D80D0
:1021800000248DF80F409DF824509DF80F40AC427C
:1021900063D2069C059402F00FF998B19DF8245083
:1021A000BDF804406543ADB2BDF81C406419BDF8EC
:1021B0002030A2B2BDF82010BDF81C00314C2468BC
:1021C000A04706E0BDF82010BDF81C002E4C246886
:1021D000A0470024ADF80840BDF80450BDF8084001
:1021E000AC422FD2059C2478ADF80C40059C661CAF
:1021F00034782502ADB2BDF80C406419ADF80C403E
:10220000741C0594BDF81050BDF80840AC4213D8BA
:1022100000248DF80E409DF824509DF80E40AC42ED
:102220000AD2BDF80C00194C2468A0479DF80E4056
:10223000641C8DF80E40EEE7BDF80840641CADF854
:102240000840C9E7BDF82040641CADF820409DF867
:102250000F40641C8DF80F4095E7BDF80A40641CE0
:10226000ADF80A4075E7064D2C6844F480542C60A4
:10227000DDF800E00AB07047D4420220D6420220C6
:1022800014140240E4420220E8420220EC42022000
:1022900083B0CDF800E0ADF80400ADF808102A20B6
:1022A000134C2468A047BDF80420140AE0B2114C76
:1022B0002468A047BDF804000E4C2468A0472B20DA
:1022C0000B4C2468A047BDF80820140AE0B2094C62
:1022D0002468A047BDF80800064C2468A0472C20BD
:1022E000034C2468A047DDF800E003B0704700BF4E
:1022F000F8420220FC42022083B0CDF800E0ADF8A5
:102300000400ADF808100220174C2468A047BDF85F
:102310000420140AE0B2154C2468A0470320124C94
:102320002468A047BDF80400104C2468A04706208C
:102330000D4C2468A047BDF80820140AE0B20B4CED
:102340002468A0470720084C2468A047BDF808006F
:10235000064C2468A0472220034C2468A047DDF8DF
:1023600000E003B0704700BFF8420220FC420220A8
:1023700081B000F0030202490A7001B0704700BF4B
:102380007F42022083B0CDF800E09EB293B28AB2C1
:1023900081B2494C2488B4F5F07F05D8474C248895
:1023A000B4F5F07F00D804E040F2203840F2E017A6
:1023B00003E040F2E01840F21017414C24785A2C08
:1023C0001DD1FEF7F9FF68B1A8F10105ADB2AC1B54
:1023D000ADF80440AC1AADF80640ADF80810ADF801
:1023E0000A300BE0ADF80420ADF806607D1EADB2FA
:1023F000EC1AADF808406C1AADF80A401CE0FEF784
:10240000DBFF88B1A8F10105ADB2EC1AADF80440CC
:102410006C1AADF806407D1EADB2AC1BADF808409D
:10242000AC1AADF80A4007E0ADF80410ADF806307C
:10243000ADF80820ADF80A602A20224C2468A04795
:10244000BDF80440240AE0B21F4C2468A047BDF840
:1024500004001D4C2468A047BDF80640240AE0B2E1
:10246000194C2468A047BDF80600174C2468A04703
:102470002B20144C2468A047BDF80840240AE0B281
:10248000114C2468A047BDF808000F4C2468A047F1
:10249000BDF80A40240AE0B20B4C2468A047BDF8FE
:1024A0000A00094C2468A0472C20064C2468A04749
:1024B000DDF800E003B07047D4420220D64202208B
:1024C00003030020F8420220FC42022083B0CDF832
:1024D00000E09EB293B28AB281B2514C2488B4F526
:1024E000F07F05D84F4C2488B4F5F07F00D804E085
:1024F00040F2203840F2E01712E0494C2488B4F54D
:10250000A07F05D8474C2488B4F5A07F00D804E00C
:1025100040F2E01840F2101702E040F24018F027B5
:10252000414C24785A2C1DD1FEF746FF60B1ADF81E
:102530000420ADF806607D1EADB2EC1AADF808407F
:102540006C1AADF80A400CE0A8F10105ADB2AC1B65
:10255000ADF80440AC1AADF80640ADF80810ADF87F
:102560000A301CE0FEF728FF40B1ADF80410ADF8CA
:102570000630ADF80820ADF80A6010E0A8F10105BA
:10258000ADB2EC1AADF804406C1AADF806407D1EF1
:10259000ADB2AC1BADF80840AC1AADF80A402A2029
:1025A000224C2468A047BDF80440240AE0B2204C25
:1025B0002468A047BDF804001D4C2468A047BDF85E
:1025C0000640240AE0B21A4C2468A047BDF8060071
:1025D000174C2468A0472B20144C2468A047BDF852
:1025E0000840240AE0B2124C2468A047BDF8080055
:1025F0000F4C2468A047BDF80A40240AE0B20C4CF6
:102600002468A047BDF80A00094C2468A0472C2084
:10261000064C2468A047DDF800E003B0704700BF17
:10262000D4420220D642022003030020F8420220B6
:10263000FC42022083B0CDF800E0ADF80400ADF814
:1026400008102A20134C2468A047BDF80420140A5F
:10265000E0B2114C2468A047BDF804000E4C246879
:10266000A0472B200B4C2468A047BDF80820140A73
:10267000E0B2094C2468A047BDF80800064C246865
:10268000A0472C20034C2468A047DDF800E003B0ED
:10269000704700BFF8420220FC42022083B0CDF810
:1026A00000E0044604F0FF031A09104603F00F028D
:1026B0009446220A02F00F02934620E0314A029229
:1026C00033E0314A029230E0304A02922DE0304A43
:1026D00002922AE02F4A029227E02F4A029224E037
:1026E0002E4A029221E02E4A02921EE02D4A0292C8
:1026F0001BE02D4A029218E02C4A029215E00028B5
:10270000DCD00128DDD00228DED00328DFD0042869
:10271000E0D00528E1D00628E2D00728E3D0082839
:10272000E4D00928E5D00A28E6D0012202FA0CF20A
:10273000ADF8042002980A46BDF80410FFF744F9EA
:10274000029A02F22001BCF1070F08D90A1D1046B7
:10275000ACF10802114601910146019800E0604683
:1027600083004FF00F029A40D3430A681A400A6070
:1027700082000BFA02F30A681A430A60DDF800E0EF
:1027800003B070470000024000040240000802400D
:10279000000C0240001002400014024000180240E9
:1027A000001C024000200240002402400028024099
:1027B00083B0CDF800E0ADF80400ADF808102A2091
:1027C000134C2468A047BDF80420140AE0B2114C51
:1027D0002468A047BDF804000E4C2468A0472B20B5
:1027E0000B4C2468A047BDF80820140AE0B2094C3D
:1027F0002468A047BDF80800064C2468A0472C2098
:10280000034C2468A047DDF800E003B0704700BF28
:10281000F8420220FC42022083B0CDF800E0ADF87F
:102820000400ADF808102E4A12785A2A28D1022046
:102830002C4C2468A047BDF80420140AE0B22A4CAE
:102840002468A0470320274C2468A047BDF8040053
:10285000254C2468A0470620224C2468A047BDF8D8
:102860000820140AE0B2204C2468A04707201D4C21
:102870002468A047BDF808001B4C2468A04727E047
:102880000220184C2468A047BDF80820140AE0B2C2
:10289000154C2468A0470320124C2468A047BDF8BB
:1028A0000800114C2468A04706200E4C2468A0475D
:1028B000BDF80420140AE0B20B4C2468A04707209E
:1028C000084C2468A047BDF80400074C2468A047C2
:1028D0002220044C2468A047DDF800E003B07047D4
:1028E00003030020F8420220FC42022083B0CDF80E
:1028F00000E0ADF80400ADF808102A20134C24685D
:10290000A047BDF80420140AE0B2114C2468A04787
:10291000BDF804000E4C2468A0472B200B4C246803
:10292000A047BDF80820140AE0B2094C2468A0476B
:10293000BDF80800064C2468A0472C20034C2468EE
:10294000A047DDF800E003B0704700BFF842022066
:10295000FC42022083B0CDF800E0ADF80400ADF8F1
:1029600008102A20134C2468A047BDF80420140A3C
:10297000E0B2114C2468A047BDF804000E4C246856
:10298000A0472B200B4C2468A047BDF80820140A50
:10299000E0B2094C2468A047BDF80800064C246842
:1029A000A0472C20034C2468A047DDF800E003B0CA
:1029B000704700BFF8420220FC42022081B0031D94
:1029C0001A68034902EA0101196001B0704700BFAB
:1029D00000E800FE81B00248008801B0704700BFE7
:1029E0000003002082B0CDF800E041F61401C4F2EB
:1029F0000201064800880191054A81B20198FEF75C
:102A0000E3FFDDF800E002B0704700BF04030020E0
:102A10001400080081B0034A1080034A118001B0FD
:102A2000704700BFD0420220CC42022081B0034A4E
:102A30001080034A117001B0704700BFDA420220D3
:102A4000D842022081B0BDF80450BDF80860074CA0
:102A50002070074C2180074C2270074C2370074CD4
:102A60002580074C268001B0704700BFDF4202205E
:102A7000DC420220D9420220DE420220E042022053
:102A8000E242022081B0CDF800E0FEF76BF9FEF7DC
:102A900093FD7949086840F400600860FEF78CFDFA
:102AA000FEF78AFD754908686FF30C300860012055
:102AB000734C2468A0470120714C2468A047012072
:102AC0006F4C2468A047E2206D4C2468A047232067
:102AD0006C4C2468A04702206A4C2468A04754200C
:102AE000684C2468A047E020654C2468A04701207A
:102AF000644C2468A047FEF7D7FCFEF7D5FCE02025
:102B00005F4C2468A04703205E4C2468A047B02097
:102B10005B4C2468A04728205A4C2468A0472020FA
:102B2000584C2468A0470320564C2468A0471F2017
:102B3000544C2468A0470120524C2468A047DF2051
:102B4000504C2468A04700204E4C2468A047F02039
:102B50004B4C2468A04703204A4C2468A0473A20E5
:102B6000474C2468A0476020464C2468A047E620D4
:102B7000434C2468A0470420424C2468A0473A20D4
:102B8000404C2468A047B6203E4C2468A047B4209F
:102B90003B4C2468A04704203A4C2468A0472020DE
:102BA000384C2468A0470020364C2468A0473020C9
:102BB000344C2468A0473020324C2468A0470020C1
:102BC000304C2468A04700202E4C2468A0470020E9
:102BD0002C4C2468A047B620294C2468A04702202A
:102BE000284C2468A0470D20264C2468A0470020CC
:102BF000244C2468A0471620224C2468A0470420B7
:102C0000204C2468A04700201E4C2468A0470020C8
:102C10001C4C2468A0473620194C2468A0471A4849
:102C200001881A48008888420CD2FEF7C5FB20B103
:102C3000A020144C2468A04703E06020114C2468B5
:102C4000A0470BE0FEF7B8FB20B100200D4C246834
:102C5000A04703E0C0200B4C2468A0472920084C63
:102C60002468A0470549086840F480500860DDF8F2
:102C700000E001B0704700BF141402401414024079
:102C8000F8420220FC420220D6420220D442022016
:102C900082B08DED010ABDF80610C1F3C7117E396F
:102CA00009B201807E22BDF8061062F3CE11ADF8A4
:102CB00006109DED010A02B07047FFFF81B0019F31
:102CC000041D25680A4C05EA04064C00A4B2A5B20E
:102CD000084C2540D4B2240404F47F0445EA0404DB
:102CE0001C433C4346EA0405041D256001B07047BF
:102CF000009800FCFF03000082B08DED010ABDF8D2
:102D00000610C1F3C711411808B209B2002904DA4C
:102D10004FF0000100EE101A19E0B0F1FF0F0DDDC9
:102D2000B5EEC00AF1EE10FA04DA6FF4000100EE1D
:102D3000101A0CE0074900EE101A08E082B2BDF844
:102D4000061062F3CE11ADF806109DED010A02B037
:102D5000704700BFFFFF7F7F81B0012101480170F4
:102D600001B070479B02002081B0CDF800E0F0EE8A
:102D7000402A0D4900EE101AF4EEC02AF1EE10FAC6
:102D800007DD0A4900EE101A32EEC00AFEF734FFE2
:102D900006E0074900EE101A32EE800AFEF72CFF1B
:102DA000DDF800E001B07047DB0F4940E4CB96400E
:102DB000DB0FC93F82B0CDF800E0ADF804000E4A49
:102DC000116841F40051116001AB1978CAB2591C65
:102DD0000978C8B2D1B2FEF777FF074A11686FF3DE
:102DE000CF31116000BF044A116841F40041116005
:102DF000DDF800E002B070471414024082B0604673
:102E0000DDED040A9DED020A20EE201ADDED050A33
:102E10009DED030A20EE200A31EE400A0DED000A76
:102E2000DDED050A9DED020A20EE201ADDED040A13
:102E30009DED030A20EE200A31EE000A8DED010A15
:102E40004FF00803024600A9087810705B1E491C69
:102E5000521C002BF8D102B07047FFFF81B00091E7
:102E6000014600980B461C465A1C15460346421C58
:102E700010461A78227022780AB12B46F3E70846EA
:102E800001B0704781B0CDF800E0F0EE401AF5EEE9
:102E9000C01AF1EE10FA02D1B7EE000A5DE0314936
:102EA00000EE101AF4EEC01AF1EE10FA03DD2E490E
:102EB00000EE101A51E02D4900EE101AF4EEC01A7F
:102EC000F1EE10FA04DA4FF0000100EE101A44E0BF
:102ED000F5EEC01AF1EE10FA40F2000100DA01211D
:102EE000CBB2C9B211B1F1EE610A01E0F0EE610AB4
:102EF0001F4900EE101A20EE800AF0EE401AFDF78E
:102F00007FFABDEE400A10EE101A09B20CB200EEC4
:102F1000101AB8EEC00A31EEC00A40F2090109B237
:102F20001448FDF75FF920B2FFF7E6FEF0EE400A25
:102F30008BB10D4900EE101AF4EEC00AF1EE10FA52
:102F400004D14FF0000100EE101A06E0B7EE000ABF
:102F500080EE200A01E0B0EE600ADDF800E001B08A
:102F6000704700BFFED4B242FFFF7F7F50ACAEC2BD
:102F70003BAAB83F90B101088BB0CDF800E0ADF8A6
:102F80001C00ADF82010ADF82420ADF82830BDF8B5
:102F90002C40ADF82C40BDF82450BDF81C40641BFB
:102FA00020B224B2002C0ADA45422DB2BDF82C40E2
:102FB0006400A4B2A54201D200F09FBD07E0BDF8B5
:102FC0002C406400A4B2A04201D200F096BDBDF82E
:102FD0002850BDF82040641B20B224B2002C0ADA2D
:102FE00045422DB2BDF82C406400A4B2A54201D2E6
:102FF00000F083BD07E0BDF82C406400A4B2A042FD
:1030000001D200F07ABDE34E3488ADF81640E24DAF
:103010002C788DF81840E14C2488348000242C70E2
:10302000BDF82C50BDF8204004EB05081FFA88F8C5
:10303000BDF82C50BDF82440671BBFB2A8EB0704B5
:10304000ADF80A40BDF82C50BDF81C406619B6B268
:10305000A8EB0604ADF80C40BDF82C50BDF8284094
:10306000651BADB2AC1BADF80E40EC1BADF81040CB
:10307000CB4C2478002C00F08C83C84C2488ADF80D
:103080001240C84C24788DF81440002424B2ADF8C6
:103090000840BDF82C40ADF80640BDF92C40640056
:1030A00024B2C4F10304ADF80440BDF90640651C28
:1030B0002DB2BDF90840AC4280F2CD829DF8184097
:1030C000002C00F01482B84C2478002C40F0FF80D3
:1030D000BDF82050BDF82840671BBDF82C50BDF846
:1030E0002840651BADB2BDF906402D19ADB2BDF843
:1030F00020402E1BAD4C2588AD4C2488BBB2B2B20B
:10310000A9B2A0B2FEF75EF90121FFF78FFCBDF86E
:103110002C50BDF82840651BADB2BDF906402F19F3
:10312000BDF82C50BDF82440651BADB2BDF9084078
:103130002E19BDF82C50BDF81C406519ADB2BDF973
:1031400008402C1B3AB231B220B2FEF741FABDF86A
:103150002050BDF82840671BBDF82C50BDF820401A
:103160006519ADB2BDF906402D1BADB2BDF82040CA
:103170002E1B8E4C25888E4C2488BBB2B2B2A9B2CD
:10318000A0B2FEF71FF90121FFF750FCBDF82C504B
:10319000BDF820406519ADB2BDF906402F1BBDF842
:1031A0002C50BDF82440651BADB2BDF908402E1966
:1031B000BDF82C50BDF81C406519ADB2BDF90840F2
:1031C0002C1B3AB231B220B2FEF702FABDF8205001
:1031D000BDF82840671BBDF82C50BDF82840651B82
:1031E000ADB2BDF908402D19ADB2BDF820402E1B7F
:1031F0006E4C25886E4C2488BBB2B2B2A9B2A0B284
:10320000FEF7E0F80121FFF711FCBDF82C50BDF8E6
:103210002840A4EB05081FFA88F8BDF9084008EB20
:103220000407BDF90640A8EB0405ADB2BDF90E4098
:103230002E1BBDF9064008EB0405ADB2BDF91040E8
:103240002C1B3AB231B220B2FEF7C2F9BDF82050C1
:10325000BDF82840671BBDF82C50BDF8204065190B
:10326000ADB2BDF908402D1BADB2BDF820402E1BFC
:103270004E4C25884E4C2488BBB2B2B2A9B2A0B243
:10328000FEF7A0F80121FFF7D1FBBDF82C50BDF8E7
:10329000204004EB05081FFA88F8BDF90840A8EBA8
:1032A0000407BDF9064008EB0405ADB2BDF90A40BC
:1032B0002E1BBDF90640A8EB0405ADB2BDF90C40CC
:1032C0002C1B3AB231B220B2FEF782F90EE1BDF802
:1032D0001C50BDF82440671BBDF82C50BDF824409D
:1032E000651BADB2BDF908402D19ADB2BDF81C404B
:1032F0002E1B2E4C25882E4C2488BBB2B2B2A9B20C
:10330000A0B2FEF75FF80121FFF790FBBDF82C504B
:10331000BDF82440651BADB2BDF908402F19BDF8BA
:103320002C50BDF82840651BADB2BDF906402E19E2
:10333000BDF82C50BDF820406519ADB2BDF906406E
:103340002C1B3AB231B220B2FEF7BAF8BDF81C50CD
:10335000BDF82440671BBDF82C50BDF81C40651912
:10336000ADB2BDF908402D1BADB2BDF81C402E1BFF
:103370000E4C25880E4C2488BBB2B2B2A9B2A0B2C2
:10338000FEF720F80121FFF751FBBDF82C50BDF8E6
:103390001C400FE0DC420220D9420220DA42022027
:1033A000DF420220D8420220DE420220E242022016
:1033B000E04202206519ADB2BDF908402F1BBDF8EF
:1033C0002C50BDF82840651BADB2BDF906402E1942
:1033D000BDF82C50BDF820406519ADB2BDF90640CE
:1033E0002C1B3AB231B220B2FEF76AF8BDF81C507D
:1033F000BDF82440671BBDF82C50BDF82440651B68
:10340000ADB2BDF906402D19ADB2BDF81C402E1B62
:10341000EC4C2588EC4C2488BBB2B2B2A9B2A0B265
:10342000FDF7D0FF0121FFF701FBBDF82C50BDF8DF
:103430002440A4EB05081FFA88F8BDF9064008EB04
:103440000407BDF9084008EB0405ADB2BDF9104012
:103450002E19BDF90840A8EB0405ADB2BDF90A402C
:103460002C193AB231B220B2FEF72AF8BDF81C503E
:10347000BDF82440671BBDF82C50BDF81C406519F1
:10348000ADB2BDF906402D1BADB2BDF81C402E1BE0
:10349000CC4C2588CC4C2488BBB2B2B2A9B2A0B225
:1034A000FDF790FF0121FFF7C1FABDF82C50BDF8E0
:1034B0001C4004EB05081FFA88F8BDF90640A8EB8C
:1034C0000407BDF90840A8EB0405ADB2BDF90C40F6
:1034D0002E19BDF9084008EB0405ADB2BDF90E4048
:1034E0002C193AB231B220B2FDF7EAFF88E0BDF8FC
:1034F0001650B64C25800125B54C2570BDF82C50D2
:10350000BDF82840651BADB2BDF906402F19BDF8C6
:103510002C50BDF82440651BADB2BDF908402E19F2
:10352000BDF82C50BDF81C406519ADB2BDF908407E
:103530002C1B3AB231B220B2FEF74AF8BDF82C503B
:10354000BDF820406519ADB2BDF906402F1BBDF88E
:103550002C50BDF82440651BADB2BDF908402E19B2
:10356000BDF82C50BDF81C406519ADB2BDF908403E
:103570002C1B3AB231B220B2FEF72AF8BDF82C501B
:10358000BDF82840A4EB05081FFA88F8BDF90840EB
:1035900008EB0407BDF90640A8EB0405ADB2BDF980
:1035A0000E402E1BBDF9064008EB0405ADB2BDF977
:1035B00010402C1B3AB231B220B2FEF709F8BDF828
:1035C0002C50BDF8204004EB05081FFA88F8BDF91F
:1035D0000840A8EB0407BDF9064008EB0405ADB2AE
:1035E000BDF90A402E1BBDF90640A8EB0405ADB29B
:1035F000BDF90C402C1B3AB231B220B2FDF7E8FF06
:10360000BDF90440002C0BDABDF90840A40024B237
:10361000A51D2DB2BDF904406419ADF8044014E0B5
:10362000BDF90650BDF90840641B24B2A40024B2C1
:1036300004F20A052DB2BDF904406419ADF8044046
:10364000BDF90640641EADF80640BDF90840641C93
:10365000ADF8084029E59DF81840002C00F0728074
:103660005C4C2478002C36D1BDF82C50BDF820409D
:103670006419ADF80640BDF82C50BDF82840651B14
:10368000ADB2BDF90640AC4224D8BDF82050BDF81B
:103690002840671BBDF82050BDF90640661B494C09
:1036A0002588494C2488BBB2B2B2A9B2A0B2FDF7BA
:1036B00089FE0121FFF7BAF9BDF90620BDF82410F3
:1036C000BDF81C00FDF784FFBDF90640641CADF891
:1036D0000640D0E735E0BDF82C50BDF81C40641919
:1036E000ADF80840BDF82C50BDF82440651BADB2C4
:1036F000BDF90840AC4224D8BDF81C50BDF82440A8
:10370000671BBDF81C50BDF90840661B2D4C258871
:103710002D4C2488BBB2B2B2A9B2A0B2FDF752FEC2
:103720000121FFF783F9BDF90820BDF82810BDF885
:103730002000FDF7C5FEBDF90840641CADF8084047
:10374000D0E71EE0BDF82C50BDF820406419ADF85C
:103750000640BDF82C50BDF82840651BADB2BDF940
:103760000640AC420DD8BDF90620BDF82410BDF8C6
:103770001C00FDF72DFFBDF90640641CADF80640A6
:10378000E7E7BDF81250114C25809DF81450104CFD
:103790002570002424B2ADF80840BDF82C40ADF8E7
:1037A0000640BDF92C40640024B2C4F10304ADF816
:1037B0000440BDF90640651C2DB2BDF90840AC427D
:1037C00000F00AB8E2420220E0420220DA4202207F
:1037D000D8420220DE42022080F20B81C94C2478BC
:1037E000641E24B26710BDF82C50BDF82840651B3C
:1037F000ADB2BDF906402E19BDF82C50BDF81C40E5
:103800006519ADB2BDF908402C1B01233AB231B2A3
:1038100020B2FCF7ABFFBB4C2478641E24B26710C7
:10382000BDF82C50BDF82840651BADB2BDF906406F
:103830002E19BDF82C50BDF82440651BADB2BDF962
:1038400008402C1901233AB231B220B2FCF78EFFA6
:10385000AC4C2478641E24B26710BDF82C50BDF81F
:1038600020406519ADB2BDF906402E1BBDF82C50A5
:10387000BDF81C406519ADB2BDF908402C1B0123F1
:103880003AB231B220B2FCF771FF9E4C2478641E2C
:1038900024B26710BDF82C50BDF820406519ADB2B8
:1038A000BDF906402E1BBDF82C50BDF82440651B09
:1038B000ADB2BDF908402C1901233AB231B220B2A1
:1038C000FCF754FF8F4C2478641E24B26710BDF8B7
:1038D0002C50BDF82840651BADB2BDF908402E192B
:1038E000BDF906402D19ADB2BDF910402C1B0123C6
:1038F0003AB231B220B2FCF739FF824C2478641E10
:1039000024B26710BDF82C50BDF82840651BADB23D
:10391000BDF908402E19BDF906402D1BADB2BDF909
:103920000E402C1B01233AB231B220B2FCF71EFF2D
:10393000744C2478641E24B26710BDF82C50BDF876
:1039400020406519ADB2BDF908402E1BBDF90640F7
:103950002D1BADB2BDF90C402C1B01233AB231B284
:1039600020B2FCF703FF674C2478641E24B2671072
:10397000BDF82C50BDF820406519ADB2BDF9084026
:103980002E1BBDF906402D19ADB2BDF90A402C1B06
:1039900001233AB231B220B2FCF7E8FEBDF904408F
:1039A000002C0BDABDF90840A40024B2A51D2DB2ED
:1039B000BDF904406419ADF8044014E0BDF90650A7
:1039C000BDF90840641B24B2A40024B204F20A0525
:1039D0002DB2BDF904406419ADF80440BDF90640AC
:1039E000641EADF80640BDF90840641CADF80840FF
:1039F000DFE6BDF82C50BDF82440661BBDF82C5006
:103A0000BDF81C406419BDF8203032B2BDF820105A
:103A100020B2FCF75FFD3B4C247804F00104E4B2D3
:103A200094B1BDF82C50BDF82440661BBDF82C5055
:103A3000BDF81C406419BDF8283032B2BDF828101A
:103A400020B2FCF747FD12E0BDF82840671CBDF826
:103A50002C50BDF82440661BBDF82C50BDF81C400E
:103A600064193BB232B239B220B2FCF733FDBDF873
:103A70002C50BDF82840661BBDF82C50BDF82040E6
:103A8000641933B2BDF81C2021B2BDF81C00FCF74C
:103A900021FD1C4C247804F00104E4B294B1BDF87B
:103AA0002C50BDF82840661BBDF82C50BDF82040B6
:103AB000641933B2BDF8242021B2BDF82400FCF70C
:103AC00009FD12E0BDF82C50BDF82840671BBDF879
:103AD0002440661CBDF82C50BDF8204064193BB250
:103AE00032B221B230B2FCF7F5FCBDF81650064CEC
:103AF00025809DF81850054C2570DDF800E00BB0CE
:103B0000704700BFD8420220DC420220D942022086
:103B100089B0CDF800E01446012940F3098122461E
:103B200002231BB291FBF3F31BB2DB00E318002767
:103B30003FB20FFA81F80146184602231BB298FBE8
:103B4000F3F31BB29F4233DAFB00D4187B001BB2A5
:103B5000DB00CB184FF0080625461C46814638B2DC
:103B6000FFE723782B70761E641C6D1C002EF8D1A5
:103B7000C30009EB030443001BB25B1C1BB2DB0058
:103B8000CB184FF0080625461C4617464A46FFE765
:103B900023782B70761E641C6D1C002EF8D1401CFF
:103BA00000B2ADF8040010463A46BDF90470C4E70F
:103BB00002231BB298FBF3F30191ADF80880039246
:103BC000049010460A4619B2FFF7A2FF0498039A20
:103BD000BDF90880019902231BB298FBF3F3019110
:103BE000ADF80880039204900A4619B2FFF790FFDF
:103BF0000498039ABDF908800199002636B28246DE
:103C000091460F4602231BB298FBF3F31BB29E4270
:103C100080F28E8000EE906AF8EEE00A464B00EEED
:103C2000103A60EE200A00EE108AB8EEC00A80EE6C
:103C3000800AFFF799F88DED070A00EE906AF8EE1A
:103C4000E00A3D4B00EE103A60EE200A00EE108ACA
:103C5000B8EEC00A80EE800AFDF7CEFFB1EE401A42
:103C60008DED081AF5000AEB050454ED000A9DEDF0
:103C7000070A60EE200A231D13ED000A21EE000A58
:103C800030EEC00A8DED050A53ED000A9DED070ADE
:103C900060EE200A14ED000A21EE000A30EE800AE0
:103CA0008DED060A7C1909EB050353ED000A9DED25
:103CB000050A30EE800A04ED000AF4003B191D1DD0
:103CC00009EB04031B1D53ED000A9DED060A30EEBF
:103CD000800A05ED000A02231BB298FBF3F31BB226
:103CE000F3181BB2DB00FC18F30009EB030353EDE0
:103CF000000A9DED050A30EEC00A04ED000A022319
:103D00001BB298FBF3F31BB2F3181BB2DB00FB18DA
:103D10001C1DF30009EB03031B1D53ED000A9DED71
:103D2000060A30EEC00A04ED000A761C36B269E7D6
:103D3000DDF800E009B07047C3F5C84081B00B461C
:103D4000014618460D4614B2531E1AB224B1037828
:103D50002B706D1C401CF6E7084601B07047FFFF52
:103D600083B0CDF800E002901C4B1B88994200D331
:103D70002FE01B4B1B889A4200D32AE00020ADF8AD
:103D8000040088B291B2FEF745FEBDF80400029B24
:103D90001B181B78EBB1134B1B7863B1029B1B18EC
:103DA0001B78ADF8040098B2FDF744F9BDF80400A3
:103DB000411C89B20BE0029B1B181B78ADF8040074
:103DC00098B2FDF737F8BDF80400411C89B288B2FB
:103DD000DDE7DDF800E003B0704700BFD442022009
:103DE000D6420220C342022088B0CDF800E0ADF8F0
:103DF0001000ADF81410ADF81820ADF81C308C4C44
:103E000024786508EDB2BDF91040641B24B223B2DA
:103E1000002C03DA00231BB218B209E0854C248879
:103E2000A34204D3834C2488631E1BB2FFE718B25D
:103E30007F4C2478641E24B265102DB2BDF9184061
:103E4000641924B225B2002C03DA00252DB229B260
:103E500009E0784C2488A54204D3764C2488651E5A
:103E60002DB2FFE729B2724C2478FCB1ADF80410F2
:103E7000ADF80600BDF91420FDF7AAFBBDF9060058
:103E8000BDF90410BDF91C20FDF7A2FBBDF91020FF
:103E9000BDF91C10BDF91400FDF712FBBDF9182087
:103EA000BDF91C10BDF91400FDF70AFB624C247823
:103EB000002C00F0B880614C2488ADF80C405C4FB9
:103EC0003C788DF80E403C462478641C24B2661081
:103ED000B5B2BDF910406419ADF81040B5B2BDF9E6
:103EE00014406419ADF814403C462478A41C24B254
:103EF0006610B5B2BDF91840641BADF81840B5B2F4
:103F0000BDF91C40641BADF81C404D4C2478002CBE
:103F100000F063804B4C24787CBBBDF91440ADF8B5
:103F20000A40BDF91C50BDF80A40AC4224D8BDF986
:103F30001450BDF91C40671BBDF91450BDF80A4070
:103F4000661B414C2588414C2488BBB2B2B2A9B251
:103F5000A0B2FDF737FA0121FEF768FDBDF80A208F
:103F6000BDF91810BDF91000FDF732FBBDF80A408D
:103F7000641CADF80A40D4E72EE0BDF91040ADF85E
:103F80000840BDF91850BDF80840AC4224D8BDF92E
:103F90001050BDF91840671BBDF91050BDF808401E
:103FA000661B294C2588294C2488BBB2B2B2A9B221
:103FB000A0B2FDF707FA0121FEF738FDBDF8082091
:103FC000BDF91C10BDF91400FDF77AFABDF80840E0
:103FD000641CADF80840D4E71DE01D4C2488012185
:103FE000A0B2FEF723FDBDF91440ADF80A40BDF9BB
:103FF0001C50BDF80A40AC420DD8BDF80A20BDF9EE
:104000001810BDF91000FDF7E3FABDF80A40641C72
:10401000ADF80A40EBE7BDF80C50084C25809DF840
:104020000E50034C2570DDF800E008B0704700BF6B
:10403000D8420220D4420220DF420220DA4202208B
:10404000D9420220DE420220E2420220E042022067
:10405000DC42022081B0CDF800E0124C2488A0425E
:1040600000D31BE0104C2488A14200D316E0541C5E
:1040700024780BE0FDF778FB10E0FDF727FF0DE05B
:10408000FDF72CFE0AE0FEF729F807E0012CF1D03D
:10409000042CF2D0082CF3D0102CF4D0DDF800E082
:1040A00001B07047D4420220D642022081B0124BA8
:1040B0001860831C1C78C31C1B781B029BB2E4187D
:1040C0000E4B1C80031D1C78431D1B781B029BB2EA
:1040D000E4180B4B1C80831D1C780A4B1C800A4B78
:1040E00019800A4B1A700124094B1C700024094BDB
:1040F0001C7001B0704700BFB4420220B0420220E1
:10410000B2420220CE420220D2420220C24202200B
:104110009A020020C342022082B0CDF800E02B4B6F
:104120001B88994200D34CE0294B1B889A4200D34C
:1041300047E00024274B1C800024274B1C80274B82
:104140001980274B1980274B1A80274B1A80044669
:10415000431C19462378DEB2002B32D0234B1B7848
:104160003BB10191F0B2FCF78BF90199401C80B290
:1041700006E00191F0B2FDF7E7F80199401C80B22A
:104180001B4B1B78022B0CD11A4B1D88124C238819
:104190005B1923800F4B1B88834201D20D4B188083
:1041A0000DE00C4C23881B182380124B1C880A4BF3
:1041B0001B88A34203D20F4B1C88074B1C80084668
:1041C000C5E7DDF800E002B0704700BFD44202202E
:1041D000D64202205C0F00205E0F0020F042022039
:1041E000F2420220F4420220F6420220C3420220A0
:1041F000C2420220CE42022082B0CDF800E0034647
:10420000191D0191FDF7CCFB40F2E83100FB01F2F2
:1042100001990A601749096801F0F0010A09164975
:1042200089180878C0B2191D0968814019601149C0
:10423000096801F4E0518A0A0F4989180878C0B268
:1042400003F20802191D0968C14011600949096893
:1042500001F460414A0B084989180978C8B203F291
:104260000C02191D0968C1401160DDF800E002B0C0
:10427000704700BF08380240F002002081B0CDF83E
:1042800000E081B20348FDF7FDF8DDF800E001B081
:10429000704700BF004C004081B0CDF800E081B213
:1042A0000348FDF7EFF8DDF800E001B0704700BF0C
:1042B0000050004081B0CDF800E081B20348FDF726
:1042C000E1F8DDF800E001B0704700BF00140140E4
:1042D00081B0CDF800E081B20348FDF7D3F8DDF8F6
:1042E00000E001B0704700BF0010014081B0CDF880
:1042F00000E081B20348FDF7C5F8DDF800E001B049
:10430000704700BF0044004081B0CDF800E081B2AA
:104310000348FDF7B7F8DDF800E001B0704700BFD3
:1043200000480040094A116841F4005111600849F1
:104330000880084A11686FF3CF31116000BF054A49
:10434000116841F400411160704700BF141402402D
:10435000141802401414024081B0CDF800E083B27A
:10436000D90AC8B2C100CCB2E109C9B2012902D14F
:10437000E11DC8B200E0E0B200F0E0F95909C8B2AE
:104380008100CCB2E109C9B2012902D1E11CC8B255
:1043900000E0E0B200F0D2F9D900CBB2D909C9B23D
:1043A000012902D1D91DC8B200E0D8B200F0C6F987
:1043B000DDF800E001B0704781B00248007801B03C
:1043C000704700BF9B02002081B0CDF800E081B2B1
:1043D0000348FDF757F8DDF800E001B0704700BF73
:1043E0000078004081B0CDF800E081B20348FDF7CD
:1043F00049F8DDF800E001B0704700BF007C0040E4
:1044000082B0CDF800E0ADF80400154A116841F41F
:104410000051116001A9491C0978C8B2FDF7B4FA2E
:10442000104A11686FF3CF31116000BF0D4A116857
:1044300041F40041116001A90978C8B2FDF7A4FA5E
:10444000084A11686FF3CF31116000BF054A116847
:1044500041F400411160DDF800E002B0704700BF98
:104460001414024014140240024A116860F38E31A1
:1044700011607047140C0240024A116860F3451144
:104480001160704714040240024A116860F38611FB
:104490001160704714000240024A116860F308215D
:1044A00011607047140C0240024A116860F3492100
:1044B00011607047140C0240024A116860F38201D7
:1044C00011607047140C0240024A116860F34511F4
:1044D0001160704714000240024A116860F34921DC
:1044E0001160704714040240024A116860F3082109
:1044F0001160704714040240024A116860F34511CC
:1045000011607047140C0240024A116860F30411F4
:104510001160704714040240024A116860F34D3183
:104520001160704714100240024A116860F3820162
:104530001160704714080240024A116860F30821B4
:104540001160704714040240024A116860F3C711F9
:104550001160704714080240024A116860F3C301F9
:104560001160704714140240024A116860F3CF31A1
:1045700011607047140C0240024A116860F3000198
:104580001160704714140240024A116860F341013F
:104590001160704714140240024A116860F38611DA
:1045A0001160704714080240024A116860F30C3130
:1045B0001160704714080240024A116860F38E319E
:1045C0001160704714100240024A116860F3C30181
:1045D0001160704714080240024A116860F34921D3
:1045E0001160704714040240024A116860F3CB2145
:1045F0001160704714080240024A116860F38A2172
:104600001160704714080240024A116860F34D318E
:104610001160704714080240024A116860F34511A6
:104620001160704714000240024A116860F30411DF
:104630001160704714000240024A116860F3CB21F8
:104640001160704714100240024A116860F30C3187
:1046500011607047140C0240024A116860F3451162
:104660001160704714040240024A116860F3861119
:104670001160704714000240024A116860F3C301E0
:10468000116070471400024081B0CDF800E00B4A81
:1046900011686FF34D311160FDF776F9084A116822
:1046A0006FF3CF31116000BF054A116841F400413A
:1046B0001160DDF800E001B0704700BF1414024043
:1046C0001414024081B0CDF800E00C4A116841F4A6
:1046D00000511160C1B20020FDF7F6FA074A1168D7
:1046E0006FF3CF31116000BF044A116841F40041FB
:1046F0001160DDF800E001B0704700BF1414024003
:1047000081B0CDF800E00C4A11686FF34D311160B3
:10471000C1B20020FDF7D8FA074A11686FF3CF3114
:10472000116000BF044A116841F400411160DDF8D6
:1047300000E001B0704700BF1414024081B0CDF812
:1047400000E0134A11686FF30C311160114A1168CF
:1047500041F480411160104A116841F40051116028
:10476000FDF712F90D4A11686FF3CF31116011682E
:1047700041F400411160064A116841F48051116012
:10478000FDF716F9FDF714F9DDF800E001B0704708
:104790001414024014140240141402401414024071
:1047A00081B0CDF800E0FDF703F9FDF701F9114AFA
:1047B00011686FF30C3111600F4A116841F48041A8
:1047C00011600E4A11686FF34D311160FDF7DCF88E
:1047D0000B4A11686FF3CF311160116841F4004149
:1047E0001160044A116841F480511160DDF800E065
:1047F00001B0704714140240141402401414024013
:104800001414024081B0CDF800E00B4A116841F465
:1048100000511160FDF7B8F8084A11686FF3CF3105
:10482000116000BF054A116841F400411160DDF8D4
:1048300000E001B0704700BF14140240141402409D
:10484000024A116860F3C30111607047140C024002
:10485000024A116860F34511116070471404024068
:10486000024A116860F3861111607047140002401B
:10487000024A116860F3451111607047140002404C
:10488000024A116860F3861111607047140C0240EF
:10489000024A116860F3041111607047140C024061
:1048A000024A116860F34D3111607047140C0240E8
:1048B000024A116860F382011160704714040240DB
:1048C000024A116860F30821116070471404024025
:1048D000024A116860F386111160704714040240A7
:1048E000024A116860F3C711116070471404024056
:1048F000024A116860F30C311160704714100240D5
:10490000024A116860F30001116070471408024008
:10491000024A116860F34921116070471404024093
:10492000024A116860F38A2111607047140802403E
:10493000024A116860F3CB211160704714080240ED
:10494000024A116860F30C3111607047140802408C
:10495000024A116860F3410111607047140402407B
:10496000024A116860F3CF311160704714100240A1
:10497000024A116860F3C71111607047140C0240BD
:10498000024A116860F386111160704714080240F2
:10499000024A116860F3410111607047141402402B
:1049A000024A116860F3000111607047141402405C
:1049B000024A116860F3000111607047140402405C
:1049C000024A116860F38A21116070471410024096
:1049D000024A116860F3C711116070471408024061
:1049E00081B000F21C010A68C2F3801188B201B0E4
:1049F0007047FFFF82B0CDF800E080469946029CE8
:104A00004FF000004F4CA04506D14F4C20684F4C52
:104A100025684F4C25601DE04E4CA04506D14E4CFC
:104A200020684E4C25684A4C256013E04C4CA0454C
:104A300006D14C4C20684C4C2568454C256009E05B
:104A40004A4CA04506D14A4C20684A4C2568404C47
:104A50002560FFE7484C20604FF4005401924FF06E
:104A600000735FFA89F2404610B4FEF727F901B0EF
:104A7000019A414613464A46002A24D93E4C2068F2
:104A80000193034608461146019A00F2180424686F
:104A900004F002046CB9384C24684CB133B90420DA
:104AA0002B4C2468A0474FF6FF7046E05B1EFFE7E3
:104AB000EBE700F2280514782C60541C23464C1EAA
:104AC00022460146D8E72C4C2068019008460199FF
:104AD00000F21804246804F001046CB9264C246820
:104AE0004CB131B904201A4C2468A0474FF6FF702E
:104AF00023E0491EFFE7EBE71F4C216800F2180492
:104B0000246804F020046CB91B4C24684CB131B902
:104B100004200F4C2468A0474FF6FF700DE0491E9B
:104B2000FFE7EBE700F2180635686FF0200405EAAE
:104B300004043460FDF742FF0020DDF800E002B01D
:104B4000704700BF00540040DC0200209C4202205D
:104B50009842022000580040E0020020A0420220BB
:104B6000005C0040E4020020A442022000600040FB
:104B7000E8020020A8420220EC02002081B000F2EE
:104B80001C010A68C2F3401101B9F8E700F22401E0
:104B9000096888B201B0704781B000F21C010A6850
:104BA000C2F3401188B201B07047FFFF81B013B269
:104BB0000246C8B211461DB22CB26B1E1DB214B112
:104BC0000870491CF8E7104601B0704781B0054BEA
:104BD0001860054B1960054B1A600124044B1C80BA
:104BE00001B07047F8420220FC420220EC42022051
:104BF0000003002083B0CDF800E00024A10041189C
:104C00000968B1F1FF3F14D000F23401A300C918C4
:104C100009680A46C11809680190ADF808400846BD
:104C20001146FDF73BFDBDF808400198641CA4B295
:104C3000E4E7DDF800E003B07047FFFF8BB0CDF88C
:104C400000E09AB2BDF82C300C9E06ACADF80430F2
:104C5000ADF80820039104902046FFF7CDFA0498A0
:104C60000399BDF80820BDF804307F4CA04213D151
:104C70007E4D2C6844F010042C607D4D7D4C2560E9
:104C80007D4D7E4C25607E4D7E4C25607E4D7F4C5B
:104C90002560099C05949FE07D4CA04213D17D4D79
:104CA0002C6844F400342C607B4D724C25607B4DA5
:104CB000724C25607A4D734C25607A4D734C25609B
:104CC000089C059488E0784CA04213D1714D2C6863
:104CD00044F480242C60754D664C2560744D674CFF
:104CE0002560744D674C2560734D684C2560089CA9
:104CF000059471E0714CA04213D1664D2C6844F4C8
:104D000000242C606E4D5B4C25606E4D5B4C256025
:104D10006D4D5C4C25606D4D5C4C2560089C059488
:104D20005AE06B4CA04213D15A4D2C6844F48014C5
:104D30002C60684D4F4C2560674D504C2560674D89
:104D4000504C2560664D514C2560089C059443E00D
:104D5000644CA04213D1454D2C6844F020042C60D3
:104D6000614D444C2560614D444C2560604D454C7F
:104D70002560604D454C2560099C05942CE05E4CF7
:104D8000A04213D15D4D2C6844F080442C605C4DF2
:104D9000384C25605B4D394C25605B4D394C2560A6
:104DA0005A4D3A4C2560089C059415E0584CA04299
:104DB00012D1524D2C6844F000442C60554D2D4CBE
:104DC0002560554D2D4C2560544D2E4C2560544D7D
:104DD0002E4C2560089C0594ADF80430ADF80820F1
:104DE000039104903046FFF705FF04980399BDF83E
:104DF0000820BDF80430051D00242C60051D2C681A
:104E00001C432C60002404601AB142F4806292B208
:104E1000FFE7046814430460046844F00D04046070
:104E200000F2080500242C60059D192465438C00C0
:104E3000B5FBF4F76424B7FBF4F4260135096424C8
:104E40006C433C1B240104F232056424B5FBF4F4EA
:104E500004F00F0446EA040400F20C05A4B22C602E
:104E6000DDF800E00BB0704700100140443802400C
:104E7000D1420008004302203D6D00080443022097
:104E80006D6D000808430220556D00080C43022098
:104E90000044004040380240ED420008716F0008B5
:104EA000596F0008416F000800480040094300089E
:104EB000B167000899670008C9670008004C004006
:104EC0007D420008F9670008E167000839670008BB
:104ED000005000409942000821670008516700080F
:104EE0008167000800140140B542000869670008A6
:104EF000AD6C0008956C0008007800404038024016
:104F0000C9430008C56C0008F56C0008DD6C00089A
:104F1000007C0040E5430008CD6A0008BD6600083B
:104F20006164000881B0CDF800E084B28DB24FF624
:104F3000FF73204A1380FDF70FFFFDF74BFD01289B
:104F400008D01D4B1D4A13601D4B1E4A13601E4B9B
:104F50001E4A13601E4A14801E4A1580AC4203D3B9
:104F600000231D4A137002E05A231B4A13700121CB
:104F700040F20000FDF75AFD0023002208B404B4FB
:104F80000023002200210020FDF75CFD02B000217B
:104F90000020FDF73FFD0023104A1370FDF722FDAE
:104FA000FDF770FD0E4B0F4A1360DDF800E001B015
:104FB000704700BF0403002089460008F842022021
:104FC00005480008FC42022025430008EC4202206C
:104FD000D4420220D642022003030020C342022012
:104FE000CD240008E442022082B0CDF800E000F2B7
:104FF0001B01097879B300F21A01097871B100F246
:10500000180109888AB200F2140109680190084663
:1050100091B20222FFF74AF801980DE000F2180160
:1050200009888AB200F2140109680190084691B219
:105030000022FFF73BF8019800F2080109888BB2C3
:10504000811D09888AB200F210010968084691B2F0
:105050009AB2FEF785FEDDF800E002B07047FFFF70
:1050600082B0CDF800E000F212010978002971D079
:105070003A490978012925D1002238490A7000F2FD
:10508000180109888EB200F21A0109888DB200F267
:1050900016010978CCB200F215010978CBB200F202
:1050A000200109888AB200F2140109780190C8B27F
:1050B00091B2DAB2E3B240B420B4FDF7C3FC02B05F
:1050C000019821E000F21A0109888EB200F218015D
:1050D00009888DB200F216010978CCB200F21501F0
:1050E0000978CBB200F21C0109888AB200F21401DF
:1050F00009780190C8B291B2DAB2E3B240B420B4F8
:10510000FDF7A0FC02B0019800F20E010978CAB2C6
:1051100000F210010988019088B2D1B2FDF786FC37
:10512000019800F208010A8800F20C010988511860
:1051300089B24D1E811D0C8800F20A010988611890
:1051400089B24B1E12B221B208B211B21AB22BB2FE
:10515000FEF74AFEDDF800E002B0704707030020CA
:1051600082B0CDF800E08DF80400154A11686FF3A5
:105170000C311160BE20134C2468A0470620124C4D
:105180002468A0479DF804000F4C2468A047012024
:105190000D4C2468A047FF200B4C2468A04700203A
:1051A000094C2468A0470120074C2468A047044A02
:1051B000116841F480511160DDF800E002B07047E1
:1051C00014140240F8420220FC42022082B0CDF8C2
:1051D00000E0804692469946029C4FF00000404C09
:1051E000A04506D13F4C20683F4C25683F4C2560C8
:1051F0001DE03F4CA04506D13E4C20683E4C256842
:105200003A4C256013E03D4CA04506D13C4C20684B
:105210003C4C2568354C256009E03B4CA04506D147
:105220003A4C20683A4C2568304C2560FFE7394CF1
:1052300020604FF40054384B5FFA89F2404610B4B6
:10524000FDF73CFD01B00022434651464D46AA42BF
:1052500022D2304C20680195054618461346019A23
:1052600000F21804246804F004045CB9294C246892
:105270003CB125B903201D4C2468A0472CE06D1ECD
:10528000FFE7EDE7CD1800F2240424682C705B1CC6
:1052900015461A460346DAE71E4C206801461846B2
:1052A00000F21804246804F020045CB9194C246846
:1052B0003CB121B903200D4C2468A0470CE0491EE5
:1052C000FFE7EDE700F2180635686FF0200405EA05
:1052D00004043460FDF772FBDDF800E002B07047B3
:1052E00000540040DC0200209C4202209842022030
:1052F00000580040E0020020A0420220005C004074
:10530000E4020020A442022000600040E8020020E5
:10531000A8420220EC0200200004000282B0CDF876
:1053200000E0F0EE400AF5EEC00AF1EE10FA04DCFF
:105330004FF0000100EE101A51E0B0EE601AB7EE27
:10534000000AF4EEC00AF1EE10FA06DAB7EE000A2F
:1053500080EE011AB0EE410A01E0B0EE410A01A967
:105360000846FDF795FCBDF90420022109B292FB25
:10537000F1F108B2FDF7C0FCB0EE401AB7EE000A3A
:10538000F4EEC00AF1EE10FA08DAB7EE000A80EE89
:10539000010AB0EE401AF0EE411A01E0F0EE411AB7
:1053A0001420B0EE601AFFE781EE210A70EE210AA8
:1053B000B0EE000A80EE800AF0EE400AB4EEE10A98
:1053C000F1EE10FA02D1B0EE610A08E0F0EE601AD8
:1053D000411E89B288B20029E6D1B0EE610ADDF83B
:1053E00000E002B07047FFFF81B0CDF800E000F2AE
:1053F0001401097899B100F217010978CCB200F2D2
:10540000100109680B4600F2080109888AB2811D63
:10541000098888B291B21A46E3B2FEF71BFEDDF8A6
:1054200000E001B07047FFFF83B0CDF800E000F26C
:1054300012010978002900F01B818F4909780129A0
:1054400025D100228C490A7000F22A0109888EB207
:1054500000F22C0109888DB200F228010978CCB243
:1054600000F227010978CBB200F2320109888AB232
:1054700000F2140109780190C8B291B2DAB2E3B235
:1054800040B420B4FDF7DEFA02B0019821E000F24A
:105490002C0109888EB200F22A0109888DB200F22F
:1054A00028010978CCB200F227010978CBB200F2CA
:1054B0002E0109888AB200F2140109780190C8B25D
:1054C00091B2DAB2E3B240B420B4FDF7BBFA02B055
:1054D000019800F20E010978CAB200F210010988A1
:1054E000019088B2D1B2FDF7A1FA019800F2300123
:1054F0000978CEB200F208010A8800F20C0109888E
:10550000511889B28D1E811D0C8800F20A0109888C
:10551000611889B28B1E521C611C019088B291B235
:105520009AB2ABB240B4FDF727FD01B0019800F28A
:105530002601097871B100F2240109888AB200F2CB
:10554000200109680190084691B20222FEF7AEFDE3
:1055500001980DE000F2240109888AB200F22001CE
:1055600009680190084691B20022FEF79FFD01985C
:1055700000F2080109888BB2811D09888AB200F205
:10558000180109680190084691B29AB2FEF7C4FD6D
:10559000019800F21C01097829B9811D0988091DAB
:1055A000ADF8081026E000F21C01097801290ED19F
:1055B000811D0B8800F20A010A8830490988511AB6
:1055C00089B2490889B25918ADF8081012E000F202
:1055D0001C01097802290DD1811D0A8800F20A01F7
:1055E0000988521892B225490988511A89B2091FAF
:1055F000ADF8081000F21D01097831B900F2080178
:105600000988C91CADF80A1028E000F21D010978CC
:1056100001290FD100F208010B8800F20C010A8861
:1056200017490988511A89B2490889B25918ADF841
:105630000A1013E000F21D01097802290ED100F2D0
:1056400008010A8800F20C010988521892B20C492C
:105650000988511A89B2091FADF80A1000F2180121
:105660000968BDF80A200846BDF80810FEF778FB67
:10567000DDF800E003B07047070300205C0F002056
:105680005E0F002081B000F218010A68C2F34021C9
:1056900009B1012000E0002001B0704782B0CDF8D0
:1056A00000E000F212010978002900F078803E49FC
:1056B0000978012925D100223B490A7000F218011E
:1056C00009888EB200F21A0109888DB200F2160123
:1056D0000978CCB200F215010978CBB200F22001B2
:1056E00009888AB200F2140109780190C8B291B217
:1056F000DAB2E3B240B420B4FDF7A4F902B00198E5
:1057000021E000F21A0109888EB200F2180109881E
:105710008DB200F216010978CCB200F215010978B9
:10572000CBB200F21C0109888AB200F21401097898
:105730000190C8B291B2DAB2E3B240B420B4FDF73E
:1057400081F902B0019800F20E010978CAB200F2A4
:1057500010010988019088B2D1B2FDF767F901986C
:1057600000F21E010978CEB200F208010A8800F2A8
:105770000C010988511889B28D1E811D0C8800F218
:105780000A010988611889B28B1E521C611C88B2FB
:1057900091B29AB2ABB240B4FDF7EEFB01B0DDF8C6
:1057A00000E002B0704700BF0703002084B0CDF8CE
:1057B00000E0ADF80C001C4A11686FF30C31116069
:1057C000FEF7FAFD68B1194909884C1E1849098885
:1057D000491EA3B28AB200210020164C2468A047BB
:1057E00004E000210020144C2468A04710490A88D6
:1057F0000E4909885143029100210191029A0199B1
:10580000914208D2BDF80C000C4C2468A0470199C5
:10581000491C0191F2E7044A116841F4805111607A
:10582000DDF800E004B0704714140240D6420220B4
:10583000D4420220E4420220E8420220EC4202204C
:1058400081B01CF8019B0BF8019BBBEB0A0FF8D150
:1058500001B0704781B0CDF800E0F0EE400AB1EE43
:10586000600AFDF70FFBF7EE000A70EE800AB7EE54
:10587000000A80EE200ADDF800E001B07047FFFF6B
:1058800081B0F0EE400AF5EEC00AF1EE10FA02DA4D
:10589000B1EE600A01E0B0EE600A01B07047FFFFB0
:1058A000ADF5405D3DB0CDF800E042F6EC646C44EF
:1058B000218042F6F0646C44226042F6F4646C4449
:1058C0002360F0EE400A4FF0000403EE904A40F2ED
:1058D000000A0FFA8AFA0FFA80F9B0EE633AF0EE96
:1058E000603A0FFA8AF64E453EDA02ADB4002C1942
:1058F000019042F6087068440460019800EE906AD6
:10590000F8EEE00A964C00EE104A20EE201A00EE67
:10591000909AF8EEE00AB7EE000A30EEC00A81EE87
:10592000000AFDF721FAF6EE000A60EE800AB6EEF4
:10593000000A30EE600A019042F60870684404687C
:10594000019804ED000A02ADB4002C1914ED000A10
:1059500020EE000A33EE000A741C0FFA84FAB0EE4F
:10596000403A0FFA8AF6BEE763EE830AB7EE000A02
:1059700080EE200A42F6F8646C4404ED000A00212F
:1059800009B20FFA89F0B1F5805F16DACD00754CD7
:1059900065194FF0000400EE104A05ED000ACD0035
:1059A000704C6419251D4FF0000400EE104A05EDFF
:1059B000000A4E1C36B231B2E5E7002636B202B21A
:1059C00031B2914210DACD00664C66198D0042F674
:1059D000F0646C442468641914ED000A06ED000AB2
:1059E0004C1C26B231B2ECE700273FB238B29042ED
:1059F00016DAC5005B4C661902AC8500641954EDDB
:105A0000000A42F6F0646C442468641914ED000A3C
:105A100020EE800A06ED000A441C27B238B2E6E701
:105A200042F6EC646C44504AB4F900104D48FEF75D
:105A30006FF842F6EC646C44B4F90040E40022B222
:105A400048494A48FEF77AF940F200080FFA88F808
:105A500042F6EC646C44B4F90040A04563DA4FEAC6
:105A6000C805424C6419251D55ED000ABFEE000A19
:105A700020EE800A05ED000A4FEAC805394C661988
:105A8000019042F60870684406600198374C651929
:105A9000344682B0AC460DF1000B0BF1080AFFF75B
:105AA000CFFE82B0A4460DF1000B0BF1080AFFF700
:105AB000C7FE42F60C7CEC44FDF7A0F904B04FF0B1
:105AC0000807019042F60870684404680198264669
:105AD00042F6FC656D440FFA88F2FFE72C783470CB
